:020000040800F2
:10000000A008002089010008910100089301000860
:100010009501000897010008990100080000000000
:100020000000000000000000000000009B0100082C
:100030009D010008000000009F010008A1010008C8
:10004000A3010008A3010008A3010008A301000800
:10005000A3010008A3010008A3010008A3010008F0
:10006000A3010008A3010008A3010008A3010008E0
:10007000A3010008A3010008A3010008A3010008D0
:10008000A3010008A3010008A9020008A3010008B9
:10009000A3010008A3010008A3010008A3010008B0
:1000A000A3010008A3010008A3010008A3010008A0
:1000B000ED0600080D070008A3010008A3010008D1
:1000C000A3010008A3010008A3010008A301000880
:1000D000A3010008A3010008A3010008A301000870
:1000E000C9020008A3010008A301000800F002F8FB
:1000F00000F03AF80AA090E8000C82448344AAF188
:100100000107DA4501D100F02FF8AFF2090EBAE885
:100110000F0013F0010F18BFFB1A43F0010318473B
:100120001C0D00003C0D0000103A24BF78C878C1B7
:10013000FAD8520724BF30C830C144BF04680C60ED
:10014000704700000023002400250026103A28BF35
:1001500078C1FBD8520728BF30C148BF0B60704739
:100160001FB51FBD10B510BD00F063F81146FFF7B5
:10017000F7FF00F02DFD00F081F803B4FFF7F2FF68
:1001800003BC00F089F8000009488047094800478F
:10019000FEE7FEE7FEE7FEE7FEE7FEE7FEE7FEE737
:1001A000FEE7FEE704480549054A064B7047000094
:1001B0008D060008ED000008A0020020A008002025
:1001C000A0040020A004002010B5203AC0F00B804D
:1001D000B1E81850203AA0E81850B1E81850A0E84B
:1001E0001850BFF4F5AF5FEA027C24BFB1E81850A5
:1001F000A0E8185044BF18C918C0BDE810405FEA15
:10020000827C24BF51F8043B40F8043B08BF704790
:10021000D20728BF31F8023B48BF11F8012B28BF95
:1002200020F8023B48BF00F8012B70477047704729
:100230007047754600F02CF8AE46050069465346F7
:1002400020F00700854618B020B5FFF7ABFFBDE8EA
:1002500020404FF000064FF000074FF000084FF02D
:10026000000B21F00701AC46ACE8C009ACE8C009BE
:10027000ACE8C009ACE8C0098D46704710B504462B
:10028000AFF300802046BDE81040FFF776BF0000C6
:10029000004870473C02002001491820ABBEFEE731
:1002A00026000200704700000548006800F00200C8
:1002B00020B103484C3000680249086070470000D4
:1002C000002401406800002010B50E2000F05EFA06
:1002D0000D21024800F074FB10BD00000010014029
:1002E0000FB41FB501200390DDE911121398CDE979
:1002F000001202900DA80FC800F073FB012000F05F
:10030000CBFC00200390DDE911121398CDE9001217
:1003100002900DA80FC800F064FB012000F0BCFCA7
:100320001FBC5DF814FB0FB470B5A8B006460D46AF
:100330000DB9802402E0012D00D1C024A019C4B25F
:100340009C2231A96846FFF73FFF20462EA90EC91F
:1003500000F0FAF828B070BC5DF814FB0FB400B5DB
:10036000A7B000F051FB9C222BA96846FFF72CFF99
:10037000002028A90EC900F0AAF8002003902CA89C
:1003800007C88DE8070028A80FC800F02AFB9C22A8
:100390002BA96846FFF718FF032028A90EC900F013
:1003A00096F898222CA96846FFF70EFF28A80FC8D8
:1003B000FFF796FF98222CA96846FFF705FF28A8AB
:1003C0000FC8FFF78DFF98222CA96846FFF7FCFEA7
:1003D00028A80FC8FFF784FF9C222BA96846FFF7C7
:1003E000F3FE022028A90EC900F071F898222CA96A
:1003F0006846FFF7E9FE28A80FC8FFF771FF9C22A7
:100400002BA96846FFF7E0FE282028A90EC900F0B6
:100410009BF89C222BA96846FFF7D6FE0C2028A942
:100420000EC900F091F89C222BA96846FFF7CCFE7C
:10043000062028A90EC900F087F89C222BA968463F
:10044000FFF7C2FE012028A90EC900F07DF827B0F1
:100450005DF814FB0FB410B5A8B00446012003905A
:100460002FA807C88DE807002BA80FC800F0B9FA1D
:100470009C222EA96846FFF7A7FE20462BA90EC98D
:1004800000F062F8002003902FA807C88DE807004D
:100490002BA80FC800F0A5FA28B010BC5DF814FB1B
:1004A0000FB410B5A8B004460AE09C222EA96846F5
:1004B000FFF78AFE20782BA90EC9FFF7CBFF641C3B
:1004C00020780028F1D128B010BC5DF814FB0FB4DF
:1004D0001FB5044604F001000390DDE919121B98D2
:1004E000CDE90012029015A80FC800F07AFAC4F303
:1004F0004000039007A8D0E91912C06ECDE90012A0
:1005000002901CA80FC800F06CFAC4F3800003909E
:1005100023A8D0E904128069CDE90012029023A833
:100520000FC800F05EFAC4F3C00003902AA8D0E917
:1005300004128069CDE9001202902AA80FC800F0C9
:1005400050FA1FBC5DF814FB0FB410B5A8B00446F8
:100550009C222EA96846FFF737FE20112BA90EC951
:10056000FFF7B5FF98222FA96846FFF72DFE2BA8AD
:100570000FC8FFF7B5FE9C222EA96846FFF724FEA0
:1005800020462BA90EC9FFF7A2FF98222FA9684683
:10059000FFF71AFE2BA80FC8FFF7A2FE28B010BC69
:1005A0005DF814FB10B500F001F810BD0CB500208B
:1005B000019000903348006840F480303149086071
:1005C00000BF3048006800F4003000900198401CE3
:1005D0000190009818B90198B0F5A06FF1D12948A1
:1005E000006800F4003010B10120009001E000200C
:1005F00000900098012843D12348006840F0100083
:10060000214908600846006820F003000860084699
:10061000006840F0020008601A48406819494860C4
:100620000846406848600846406840F4806048607A
:100630000846406820F47C1048600846406840F452
:10064000E81048600846006840F08070086000BF0D
:100650000C48006800F000700028F9D00948406894
:1006600020F00300074948600846406840F0020057
:10067000486000BF0348406800F00C000828F9D12A
:100680000CBD0000001002400020024010B51348CD
:10069000006840F0010011490860084640681049B0
:1006A00008400E494860084600680E4908400B495A
:1006B00008600846006820F480200860084640680A
:1006C00020F4FE0048604FF41F008860FFF76AFFC7
:1006D0004FF000600449086010BD000000100240A7
:1006E0000000FFF8FFFFF6FE08ED00E00648006896
:1006F000401C054908604FF08040008A20F001004E
:100700004FF08041088270475800002010B514480F
:10071000008800F00200F8B11148243000886430ED
:100720000F49243108800F480078012803D10020A8
:100730000C49087005E00B48007810B90120094900
:1007400008700848007800F0C7FA0548008820F0D3
:1007500002000349088001E00148008810BD000044
:10076000100400406C00002000280DDB00BF00BF1B
:1007700000F01F02012191404209920002F1E022A3
:10078000C2F8001100BF00BF7047000003490968AC
:10079000012282401143014A116070471404014054
:1007A00030B5082941D332B1012A16D0022A27D008
:1007B000032A39D12EE03E4B13F821309B1C012433
:1007C00004FA03F33A4C14F82140E41C0125A54037
:1007D0002B4344689C43446026E04368344C14F83F
:1007E0002140E41C0125A540AB4343604368304CE5
:1007F00014F82140A41C0125A5402B43436013E0BD
:1008000043682B4C14F82140A41C0225A5402B431F
:10081000436009E04368264C14F82140A41C0325DA
:10082000A5402B43436000BF41E032B1012A16D0FE
:10083000022A27D0032A39D12EE01D4B13F821308C
:100840009B1C012404FA03F3194C14F82140E41C06
:100850000125A5402B4304689C43046026E00368FF
:10086000134C14F82140E41C0125A540AB43036060
:1008700003680F4C14F82140A41C0125A5402B430C
:10088000036013E003680A4C14F82140A41C0225FD
:10089000A5402B43036009E00368054C14F8214090
:1008A000A41C0325A5402B43036000BF00BF30BD3F
:1008B0007400002030B5082914D3012B09D1144C41
:1008C00014F821500124AC4024434568A5434560F9
:1008D0001CE044680E4D15F8215002FA05F52C4332
:1008E000446013E0012B09D1094C14F82150012474
:1008F000AC4024430568A543056007E00468044D47
:1009000015F8215002FA05F52C43046030BD0000B3
:10091000740000200FB410B524490298884201D118
:10092000012000E00020004328B12148806940F008
:1009300004001F4988611F490298884201D10120A3
:1009400000E00020004328B11948806940F0080009
:100950001749886118490298884201D1012000E0B6
:100960000020004328B11248806940F0100010496F
:10097000886112490298884201D1012000E00020DC
:10098000004328B10A48806940F020000849886186
:10099000059ADDE90201FFF703FF02A80BC8079AD9
:1009A000FFF788FF10BC5DF814FB00000008014051
:1009B00000100240000C01400010014000140140F2
:1009C000C26801238B405A40C26070470FB4009840
:1009D000C0680121019A914048400099C86004B064
:1009E00070470FB410B5099C2CB1012003998840C1
:1009F0000299086105E003981030012181400298B6
:100A0000016110BC5DF814FB10B50F48C06940F0DF
:100A100001000D49C86101208107088548208885AB
:100A2000C006008840F0040008800846808940F035
:100A3000010088810846808A40F0010088821C20DD
:100A4000FFF792FE10BD0000001002402DE9FF4F9D
:100A5000B5B00C4615461E4642AF97E8800F002001
:100A600006900790032009900494059508A807C8EC
:100A70008DE8070004A80FC8FFF74CFF1C2204A94B
:100A80000BA8FFF7A1FB0496059708A807C88DE8F7
:100A9000070004A80FC8FFF73DFF1C2204A912A8F5
:100AA000FFF792FBCDF81080CDF8149008A807C886
:100AB0008DE8070004A80FC8FFF72CFF1C2204A92B
:100AC00019A8FFF781FBCDF810A0CDF814B008A845
:100AD00007C88DE8070004A80FC8FFF71BFF1C22FA
:100AE00004A920A8FFF770FB479804904898059048
:100AF00008A807C88DE8070004A80FC8FFF70AFF79
:100B00001C2204A927A8FFF75FFB499804904A9884
:100B1000059008A807C88DE8070004A80FC8FFF7CC
:100B2000F9FE1C2204A92EA8FFF74EFB002003901B
:100B3000DDE916121898CDE90012029012A80FC82C
:100B4000FFF74FFF002003900FA807C88DE80700AC
:100B50000BA80FC8FFF745FF00200390DDE91D211A
:100B60001F98CDE90021029019A80FC8FFF739FF9F
:100B7000002003900BA8D0E91912C06ECDE9001235
:100B8000029020A80FC8FFF72CFF0020039027A891
:100B9000D0E904128069CDE90012029027A80FC89D
:100BA000FFF71FFF002003902EA8D0E904128069F0
:100BB000CDE9001202902EA80FC8FFF712FFA8225D
:100BC0000BA93598FFF700FB39B0BDE8F08F0000A6
:100BD000B4B0062029490722CDE90512CDE9071056
:100BE000002027490122CDE90112CDE903100A2096
:100BF0000B460B2200900AA8FFF728FFA8220AA99B
:100C00002048FFF7E1FA98221E4910316846FFF7A5
:100C1000DBFA1C480FC8FFF7A1FBA02219490831D5
:100C20006846FFF7D1FA174800210CC80120FFF7EA
:100C30007AFB9C2213490C316846FFF7C5FA11482C
:100C40000EC811A0FFF72CFCA0220E4908316846FF
:100C5000FFF7BAFA0B4801210CC80220FFF763FB2B
:100C60009C2208490C316846FFF7AEFA05480EC8C9
:100C700007A0FFF715FC00BFFEE7000000080140D9
:100C8000000C01409401002048656C6C6F0000006E
:100C9000506C7A7A7A00000000210E4A11604FF001
:100CA0008041098841F001014FF08042118000BF6E
:100CB00000EB4001C1EBC011064A1268B2EBC10F54
:100CC000F6DB4FF08041098821F001014FF08042AE
:100CD000118070475800002010B594B00446012CD4
:100CE00024D10020254A0390D2E904109269CDE96D
:100CF0000102009121480FC8FFF773FE4C222049E2
:100D00006846FFF761FA1E48083801210CC81D48E3
:100D100000F03EF801201C4A0390103207CA8DE80B
:100D2000070019480FC8FFF75CFE24E01CBB002039
:100D3000154A0390D2E904109269CDE901020091AD
:100D400011480FC8FFF74DFE4C220D496846FFF7CA
:100D50003BFA0B48083801210CC80C4800F018F881
:100D60000120064A0390103207CA8DE807000348A5
:100D70000FC8FFF736FE14B010BD0000D0000020F1
:100D8000F40000206D000020B40000206E00002060
:100D90000FB42DE9FF4707460C464FF00009002528
:100DA00030E03819401B10F8018C002627E0802025
:100DB000304100EA080008B1012000E0002081462F
:100DC000CDF80C9012A807C88DE807000EA80FC830
:100DD000FFF707FEDDE919211B98CDE900210290FC
:100DE00015A80FC8FFF7F2FDDDE919121B98CDE930
:100DF0000012029015A80FC8FFF7E8FD761C082E18
:100E0000D5DB6D1CA542CCDB0EA8D0E91221006D0C
:100E1000CDE9002102901CA80FC8FFF7D7FD0EA84E
:100E2000D0E91212006DCDE9001202901CA80FC883
:100E3000FFF7CCFDBDE8FF075DF814FB5C0E000872
:100E400000000020B400000028010008100F000876
:100E5000B4000020EC07000044010008000000007E
:100E6000000000000000000000000000DC3BFAFE73
:100E7000422EE63F4C24AD7AEA93F13FDC3BFAFE8A
:100E8000422EF63F1145EDF741C0F93F3A422AFAAA
:100E90000BABFC3F581633AE7222FF3FE5AC3B3F35
:100EA000B2A200404C24AD7AEA9301407F31B5BB39
:100EB000B16B0240000000003F065B4F666D7D078E
:100EC0007F6F0000000000000100000FAA0000007A
:100ED0000000000004000000080000000C000000FA
:100EE0001000000014000000180000001C000000AA
:100EF0000000000004000000080000000C000000DA
:100F00001000000014000000180000001C00000089
:04000005080000ED02
:00000001FF
